:100000000C9464000C9411020C9411020C941102D3
:100010000C9411020C9411020C9411020C94110214
:100020000C9411020C9411020C9411020C94110204
:100030000C9411020C9411020C9411020C941102F4
:100040000C9411020C9411020C9411020C941102E4
:100050000C9411020C9411020C9411020C941102D4
:100060000C9411020C9411020C9411020C941102C4
:100070000C9411020C9411020C9411020C941102B4
:100080000C9411020C9411020C9411020C941102A4
:100090000C9411020C9411020C9411020C94110294
:1000A0000C9411020C941102A200A800AE00B4003E
:1000B000BA00C000C600CC00E000E600EC00F20090
:1000C000F800FE0004010A01809101108F7C80601D
:1000D000806898ED94BF8093011011241FBECFEF6C
:1000E000CDBFDFE7DEBFE8ECF0E040E019C0B7913C
:1000F000A79137912791079107FD0EC0979187919E
:10010000EF01F92FE82F0BBF07900D92A217B3074D
:10011000D9F7FE011BBE04C01D92A217B307E1F779
:10012000E83CF40721F70E943C010C94EE01F8949E
:02013000FFCFFF
:1001320090E088309105C8F5FC01EC5AFF4F0C9411
:100142000302E0E6F4E084818D7F84830895E0E693
:10015200F4E084818B7F84830895E0E6F4E0848177
:10016200877F84830895E0E6F4E084818F7E848330
:100172000895E0E6F4E084818F7D84830895E0E6CB
:10018200F4E084818F7B84830895E0E0F4E084814D
:100192008D7F84830895E0E6F4E08481817884830E
:0C01A200E0E0F4E084818D7F8483089508
:1001AE0090E088309105C8F5FC01E45AFF4F0C949D
:1001BE000302E0E6F4E08481826084830895E0E641
:1001CE00F4E08481846084830895E0E6F4E0848121
:1001DE00886084830895E0E6F4E0848180618483FE
:1001EE000895E0E6F4E08481806284830895E0E679
:1001FE00F4E08481806484830895E0E0F4E08481F7
:10020E00826084830895E0E6F4E084818E678483BF
:0C021E00E0E0F4E08481826084830895B5
:10022A00662309F1DC016150262F30E02F5F3F4F32
:10023A00280F391FE0E0F9E09D919087958195FD9F
:10024A000AC0958192FD07C0958193FD04C09581EE
:10025A009370933099F7958194FD07C0A217B3075D
:0E026A0059F781E0089581E0089580E008953D
:100278000E94B7010E94880180E00E9499000E94B4
:100288000C02789480E00E94D700C0E0D0E06FE7CD
:1002980081E10E94A0016FE781E10E94A001CD2BBE
:1002A80031F080E00E94D700C0E0D0E005C080E0D7
:0E02B8000E949900C1E0D0E00E94E201E8CF70
:1002C6009091050993709330E1F0880F682B609345
:1002D6000709E0E0F9E0858185FD0AC0858182FD98
:1002E60007C0858183FD04C085818370833099F7BB
:1002F6000E94C701882339F083E08093040980E0D7
:0A030600089580E0089581E0089555
:10031000A0E6B4E011968C9111978E6711968C939C
:100320001197E0E0F4E081818260818315968C91E1
:1003300015978E6715968C938581826085830895C5
:10034000CF93DF930F92CDB7DEB7698360E00E9451
:100350006301882341F061E0CE0101960E941501FE
:0E03600093E0909304090F90DF91CF910895E0
:10036E009CE188ED84BF90936800E0E0FAE08FEFA7
:10037E009FEF86A397A389E0808310A211A2089510
:10038E00809105098C7141F490910509937081E07B
:0C039E00933019F080E0089581E008958C
:1003AA00E0E0F9E084E08083118281E082839DEFBE
:0A03BA00958393E4968383830895EE
:1003C400E0E0FAE080A191A18C379249D8F3109231
:0803D400200A1092210A08958D
:1003DC00EC010E9416020E941502CE010E94170227
:0603EC00CE010E94130285
:1003F200E0E0F4E081818C60818388E083878CE097
:04040200848708954E
:10040600EE0FFF1F0024001C0BBE0790F691E02D97
:02041600099447
:0A0418000E94D5010E94F901089529
:040422000C94000036
:040426000E94970099
:02042A00089533
:02042C00089531
:02042E0008952F
:00000001FF
