:100000000C9467000C94EE020C94EE020C94EE0239
:100010000C94EE020C94EE020C94EE020C94EE02A0
:100020000C94EE020C94EE020C94EE020C94EE0290
:100030000C94EE020C94EE020C94EE020C94EE0280
:100040000C94EE020C94EE020C94EE020C94EE0270
:100050000C94EE020C94EE020C94EE020C94EE0260
:100060000C94EE020C94EE020C94EE020C94EE0250
:100070000C94EE020C94EE020C94EE020C94EE0240
:100080000C94EE020C94EE020C94EE020C94EE0230
:100090000C94EE020C94EE020C94EE020C94EE0220
:1000A0000C94EE020C94EE02300136013C01420148
:1000B00048014E0154015A016E0174017A01800118
:1000C00086018C01920198014000400880008091D7
:1000D00001108F7C8060806898ED94BF8093011040
:1000E00011241FBECFEFCDBFDFE7DEBFE8ECF0E0AD
:1000F00040E019C0B791A79137912791079107FD6B
:100100000EC097918791EF01F92FE82F0BBF079051
:100110000D92A217B307D9F7FE011BBE04C01D92B2
:10012000A217B307E1F7ED3CF40721F70E949C000A
:080130000C94C302F894FFCF08
:10013800CF93DF9300D0CDB7DEB70E948C020E9428
:10014800390280E00E9427010E941A020E94E902F7
:10015800789480E00E946501E12CF12C00E010E425
:10016800809107408E7F90910640892B90E00E94F5
:10017800E10289EF90E00197F1F700C000000E94CA
:100188007B02F80180830E947B02F80181830E9430
:100198007B02F8018283918190930540908190932E
:1001A8000440882351F08091034091E08B3008F09F
:1001B80090E0890F8093034009C08091034091E04B
:1001C800811101C090E0891B809303408091034016
:1001D800863020F087E00E94270103C087E00E9454
:1001E80065016091044081E10E94510260910540DF
:1001F80081E10E9451021A821982BE016E5F7F4F0F
:1002080082E20E946802BE016F5F7F4F82E20E9415
:1002180068028A818093074091E0811101C090E0D3
:1002280090930640EF2831F080E00E946501E12CB0
:10023800F12C06C080E00E942701EE24E394F12C03
:060248000E94B7028DCFF9
:10024E0090E088309105C8F5FC01EC5AFF4F0C94F4
:10025E00D802E0E6F4E084818D7F84830895E0E6A1
:10026E00F4E084818B7F84830895E0E6F4E084815A
:10027E00877F84830895E0E6F4E084818F7E848313
:10028E000895E0E6F4E084818F7D84830895E0E6AE
:10029E00F4E084818F7B84830895E0E0F4E0848130
:1002AE008D7F84830895E0E6F4E0848187788483EB
:0C02BE00E0E0F4E084818D7F84830895EB
:1002CA0090E088309105C8F5FC01E45AFF4F0C9480
:1002DA00D802E0E6F4E08481826084830895E0E64F
:1002EA00F4E08481846084830895E0E6F4E0848104
:1002FA00886084830895E0E6F4E0848180618483E1
:10030A000895E0E6F4E08481806284830895E0E65B
:10031A00F4E08481806484830895E0E0F4E08481D9
:10032A00826084830895E0E6F4E0848188678483A8
:0C033A00E0E0F4E0848182608483089598
:1003460020E2209305096623D1F0A82FB92F90E06B
:10035600E0E0F9E022E0858185FD17C0858182FD18
:1003660007C0858183FD04C085818370833099F73A
:1003760080858D939F5F691711F02483ECCF87E00A
:100386008093040908952483E6CF80858D939F5F2B
:060396006913F9CFF4CF5A
:10039C00662309F1DC016150262F30E02F5F3F4FBF
:1003AC00280F391FE0E0F9E09D919087958195FD2C
:1003BC000AC0958192FD07C0958193FD04C095817B
:1003CC009370933099F7958194FD07C0A217B307EA
:0E03DC0059F781E0089581E0089580E00895CA
:1003EA009091050993709330E1F0880F682B609320
:1003FA000709E0E0F9E0858185FD0AC0858182FD73
:10040A0007C0858183FD04C085818370833099F795
:10041A000E949C02882339F083E08093040980E0DB
:0A042A00089580E0089581E0089530
:10043400A0E0B8E08AE09AE118968D939C9319970E
:100444008BE017968C93179781E08093E205E0E0A8
:10045400F4E080E1818380E2828380EC16968C93C1
:0E046400808180648083858180648583089513
:10047200A0E6B4E011968C9111978E6711968C9339
:100482001197E0E0F4E081818260818315968C917E
:1004920015978E6715968C93858182608583089562
:1004A200CF93DF930F92CDB7DEB7698360E00E94EE
:1004B200F501882341F061E0CE0101960E94CE0150
:0E04C20093E0909304090F90DF91CF9108957D
:1004D0000F931F93CF938B0161E00E94F501C82F0A
:1004E000882321F061E0C8010E94A3018C2FCF91E5
:0604F0001F910F91089519
:1004F6008091040888234CF080E197E2E0E0F8E080
:100506002481222314F00197D9F78091000890E006
:02051600089546
:100518009CE188ED84BF90936800E0E0FAE08FEFFB
:100528009FEF86A397A389E0808310A211A2089564
:10053800809105098C7141F490910509937081E0CF
:0C054800933019F080E0089581E00895E0
:10055400E0E0F9E084E08083118281E082839DEF12
:0A056400958393E496838383089542
:10056E00E0E0FAE080A191A18C379249D8F3109285
:08057E00200A1092210A0895E1
:10058600EC010E94F3020E94F202CE010E94F402E4
:06059600CE010E94F002FC
:10059C00E0E0F4E081818C60818388E083878CE0EB
:0405AC0084870895A3
:1005B000EE0FFF1F0024001C0BBE0790F691E02DEC
:0205C00009949C
:1005C200E0E0F8E0948195FFFDCF80930208089562
:0A05D2000E94AA020E94CE020895C2
:0405DC000C9400007B
:0405E0000E949A00DB
:0205E400089578
:0205E600089576
:0205E800089574
:00000001FF
