:100000000C9464000C944A010C944A010C944A012B
:100010000C944A010C944A010C944A010C944A0134
:100020000C944A010C944A010C944A010C944A0124
:100030000C944A010C944A010C944A010C944A0114
:100040000C944A010C944A010C944A010C944A0104
:100050000C944A010C944A010C944A010C944A01F4
:100060000C944A010C944A010C944A010C944A01E4
:100070000C944A010C944A010C944A010C944A01D4
:100080000C944A010C944A010C944A010C944A01C4
:100090000C944A010C944A010C944A010C944A01B4
:1000A0000C944A010C944A01A200A800AE00B400CE
:1000B000BA00C000C600CC00E000E600EC00F20090
:1000C000F800FE0004010A01809101108F7C80601D
:1000D000806898ED94BF8093011011241FBECFEF6C
:1000E000CDBFDFE7DEBFE8ECF0E040E019C0B7913C
:1000F000A79137912791079107FD0EC0979187919E
:10010000EF01F92FE82F0BBF07900D92A217B3074D
:10011000D9F7FE011BBE04C01D92A217B307E1F779
:10012000E83CF40721F70E9438010C942D01F89463
:02013000FFCFFF
:1001320090E088309105C8F5FC01EC5AFF4F0C9411
:100142004101E0E6F4E084818D7F84830895E0E656
:10015200F4E084818B7F84830895E0E6F4E0848177
:10016200877F84830895E0E6F4E084818F7E848330
:100172000895E0E6F4E084818F7D84830895E0E6CB
:10018200F4E084818F7B84830895E0E0F4E084814D
:100192008D7F84830895E0E6F4E08481817884830E
:0C01A200E0E0F4E084818D7F8483089508
:1001AE0090E088309105C8F5FC01E45AFF4F0C949D
:1001BE004101E0E6F4E08481826084830895E0E604
:1001CE00F4E08481846084830895E0E6F4E0848121
:1001DE00886084830895E0E6F4E0848180618483FE
:1001EE000895E0E6F4E08481806284830895E0E679
:1001FE00F4E08481806484830895E0E0F4E08481F7
:10020E00826084830895E0E6F4E084818E678483BF
:0C021E00E0E0F4E08481826084830895B5
:10022A00A0E6B4E011968C9111978E6711968C9383
:10023A001197E0E0F4E081818260818315968C91C8
:10024A0015978E6715968C938581826085830895AC
:10025A00EC010E944F010E944E01CE010E94500102
:06026A00CE010E944C01D0
:100270000E94150180E00E94990080E00E94D70052
:02028000FFCFAE
:10028200EE0FFF1F0024001C0BBE0790F691E02D1D
:020292000994CD
:040294000C940000C6
:040298000E94970029
:02029C000895C3
:02029E000895C1
:0202A0000895BF
:00000001FF
