:100000000C9464000C9462020C9462020C946202E0
:100010000C9462020C9462020C9462020C946202D0
:100020000C9462020C9462020C9462020C946202C0
:100030000C9462020C9462020C9462020C946202B0
:100040000C9462020C9462020C9462020C946202A0
:100050000C9462020C9462020C9462020C94620290
:100060000C9462020C9462020C9462020C94620280
:100070000C9462020C9462020C9462020C94620270
:100080000C9462020C9462020C9462020C94620260
:100090000C9462020C9462020C9462020C94620250
:1000A0000C9462020C946202A200A800AE00B4009C
:1000B000BA00C000C600CC00E000E600EC00F20090
:1000C000F800FE0004010A01809101108F7C80601D
:1000D000806898ED94BF8093011011241FBECFEF6C
:1000E000CDBFDFE7DEBFE8ECF0E040E019C0B7913C
:1000F000A79137912791079107FD0EC0979187919E
:10010000EF01F92FE82F0BBF07900D92A217B3074D
:10011000D9F7FE011BBE04C01D92A217B307E1F779
:10012000E83CF40721F70E9415010C943F02F89473
:02013000FFCFFF
:1001320090E088309105C8F5FC01EC5AFF4F0C9411
:100142005402E0E6F4E084818D7F84830895E0E642
:10015200F4E084818B7F84830895E0E6F4E0848177
:10016200877F84830895E0E6F4E084818F7E848330
:100172000895E0E6F4E084818F7D84830895E0E6CB
:10018200F4E084818F7B84830895E0E0F4E084814D
:100192008D7F84830895E0E6F4E08481817884830E
:0C01A200E0E0F4E084818D7F8483089508
:1001AE0090E088309105C8F5FC01E45AFF4F0C949D
:1001BE005402E0E6F4E08481826084830895E0E6F0
:1001CE00F4E08481846084830895E0E6F4E0848121
:1001DE00886084830895E0E6F4E0848180618483FE
:1001EE000895E0E6F4E08481806284830895E0E679
:1001FE00F4E08481806484830895E0E0F4E08481F7
:10020E00826084830895E0E6F4E084818E678483BF
:0C021E00E0E0F4E08481826084830895B5
:10022A00CF93DF9300D0CDB7DEB70E9408020E94B9
:10023A00C60180E00E9499000E945D02789480E0E5
:10024A000E94D70000E010E06FE781E10E94DE0122
:10025A006FE781E10E94DE011A821982BE016E5F98
:10026A007F4F82E20E94F501BE016F5F7F4F82E2FB
:10027A000E94F501012B31F080E00E94D70000E0D6
:10028A0010E005C080E00E94990001E010E00E94A1
:04029A003302DACF82
:10029E0020E2209305096623D1F0A82FB92F90E014
:1002AE00E0E0F9E022E0858185FD17C0858182FDC1
:1002BE0007C0858183FD04C085818370833099F7E3
:1002CE0080858D939F5F691711F02483ECCF87E0B3
:1002DE008093040908952483E6CF80858D939F5FD4
:0602EE006913F9CFF4CF03
:1002F400662309F1DC016150262F30E02F5F3F4F68
:10030400280F391FE0E0F9E09D919087958195FDD4
:100314000AC0958192FD07C0958193FD04C0958123
:100324009370933099F7958194FD07C0A217B30792
:0E03340059F781E0089581E0089580E0089572
:100342009091050993709330E1F0880F682B6093C8
:100352000709E0E0F9E0858185FD0AC0858182FD1B
:1003620007C0858183FD04C085818370833099F73E
:100372000E941802882339F083E08093040980E008
:0A038200089580E0089581E00895D9
:10038C00A0E6B4E011968C9111978E6711968C9320
:10039C001197E0E0F4E081818260818315968C9165
:1003AC0015978E6715968C93858182608583089549
:1003BC00CF93DF930F92CDB7DEB7698360E00E94D5
:1003CC00A101882341F061E0CE0101960E947A01DF
:0E03DC0093E0909304090F90DF91CF91089564
:1003EA000F931F93CF938B0161E00E94A101C82F45
:1003FA00882321F061E0C8010E944F018C2FCF9120
:06040A001F910F910895FF
:100410009CE188ED84BF90936800E0E0FAE08FEF04
:100420009FEF86A397A389E0808310A211A208956D
:10043000809105098C7141F490910509937081E0D8
:0C044000933019F080E0089581E00895E9
:10044C00E0E0F9E084E08083118281E082839DEF1B
:0A045C00958393E49683838308954B
:10046600E0E0FAE080A191A18C379249D8F310928E
:08047600200A1092210A0895EA
:10047E00EC010E9467020E946602CE010E94680291
:06048E00CE010E94640291
:10049400E0E0F4E081818C60818388E083878CE0F4
:0404A40084870895AC
:1004A800EE0FFF1F0024001C0BBE0790F691E02DF5
:0204B8000994A5
:0A04BA000E9426020E944A020895E3
:0404C4000C94000094
:0404C8000E949700F7
:0204CC00089591
:0204CE0008958F
:0204D00008958D
:00000001FF
