:100000000C9464000C94E5010C94E5010C94E5015A
:100010000C94E5010C94E5010C94E5010C94E501C8
:100020000C94E5010C94E5010C94E5010C94E501B8
:100030000C94E5010C94E5010C94E5010C94E501A8
:100040000C94E5010C94E5010C94E5010C94E50198
:100050000C94E5010C94E5010C94E5010C94E50188
:100060000C94E5010C94E5010C94E5010C94E50178
:100070000C94E5010C94E5010C94E5010C94E50168
:100080000C94E5010C94E5010C94E5010C94E50158
:100090000C94E5010C94E5010C94E5010C94E50148
:1000A0000C94E5010C94E501EA00F000F600FC0078
:1000B000020108010E01140128012E0134013A0148
:1000C000400146014C015201809101108F7C8060FB
:1000D000806898ED94BF8093011011241FBECFEF6C
:1000E000CDBFDFE7DEBFE8ECF0E040E019C0B7913C
:1000F000A79137912791079107FD0EC0979187919E
:10010000EF01F92FE82F0BBF07900D92A217B3074D
:10011000D9F7FE011BBE04C01D92A217B307E1F779
:10012000E83CF40721F70E945D010C94CB01F894A0
:02013000FFCFFF
:100132000F931F93CF93DF93CDB7DEB72597CDBF34
:10014200DEBFE0E4F4E014E0118384818460848300
:100152008AE08D8341E050E0BE016B5F7F4F80E219
:100162000E94AC0101E00C8341E050E0BE016C5FF3
:100172007F4F81E00E94AC010B8341E050E0BE0161
:100182006D5F7F4F82E00E94AC018FE08A8341E085
:1001920050E0BE016E5F7F4F84E00E94AC01198384
:1001A20041E050E0BE016F5F7F4F81E10E94AC01F0
:1001B2002596CDBFDEBFDF91CF911F910F9108959C
:1001C20090E088309105C8F5FC01EC5AFF4F0C9481
:1001D200D601E0E6F4E084818D7F84830895E0E631
:1001E200F4E084818B7F84830895E0E6F4E08481E7
:1001F200877F84830895E0E6F4E084818F7E8483A0
:100202000895E0E6F4E084818F7D84830895E0E63A
:10021200F4E084818F7B84830895E0E0F4E08481BC
:100222008D7F84830895E0E6F4E08481817884837D
:0C023200E0E0F4E084818D7F8483089577
:10023E0090E088309105C8F5FC01E45AFF4F0C940C
:10024E00D601E0E6F4E08481826084830895E0E6DE
:10025E00F4E08481846084830895E0E6F4E0848190
:10026E00886084830895E0E6F4E08481806184836D
:10027E000895E0E6F4E08481806284830895E0E6E8
:10028E00F4E08481806484830895E0E0F4E0848166
:10029E00826084830895E0E6F4E084818E6784832F
:0C02AE00E0E0F4E0848182608483089525
:1002BA00CF93DF9300D000D0CDB7DEB70E94940170
:1002CA0080E00E94E1000E94BF010E94990080E044
:1002DA000E941F018CEE89838FEF8A8382E18B83D0
:1002EA0084E38C8300E010E064E070E0CE010196C4
:1002FA000E94DF01012B31F081E00E941F0100E022
:10030A0010E005C081E00E94E10001E010E080E019
:0E031A0090E00196803523EC9207D9F7E5CFED
:10032800A0E6B4E011968C9111978E6711968C9384
:100338001197E0E0F4E081818260818315968C91C9
:1003480015978E6715968C938581826085830895AD
:1003580080934409141615066CF4DB01460F571FE9
:10036800E0E4F9E083818823ECF78D918483A41776
:06037800B507C1F708956E
:10037E0080EF809301041092E405E0E4F9E084E05C
:08038E00818381E28083089560
:10039600EC010E94EA010E94E901CE010E94EB01F4
:0603A600CE010E94E701F8
:1003AC00EE0FFF1F0024001C0BBE0790F691E02DF2
:0203BC000994A2
:0C03BE00AB01BC0180EA0E94AC01089574
:0403CA000C9400008F
:0403CE000E949700F2
:0203D20008958C
:0203D40008958A
:0203D600089588
:00000001FF
