:100000000C9467000C94E4020C94E4020C94E40257
:100010000C94E4020C94E4020C94E4020C94E402C8
:100020000C94E4020C94E4020C94E4020C94E402B8
:100030000C94E4020C94E4020C94E4020C94E402A8
:100040000C94E4020C94E4020C94E4020C94E40298
:100050000C94E4020C94E4020C94E4020C94E40288
:100060000C94E4020C94E4020C94E4020C94E40278
:100070000C94E4020C94E4020C94E4020C94E40268
:100080000C94E4020C94E4020C94E4020C94E40258
:100090000C94E4020C94E4020C94E4020C94E40248
:1000A0000C94E4020C94E4022E0134013A01400164
:1000B00046014C01520158016C01720178017E0128
:1000C00084018A01900196014000400880008091DF
:1000D00001108F7C8060806898ED94BF8093011040
:1000E00011241FBECFEFCDBFDFE7DEBFE8ECF0E0AD
:1000F00040E019C0B791A79137912791079107FD6B
:100100000EC097918791EF01F92FE82F0BBF079051
:100110000D92A217B307D9F7FE011BBE04C01D92B2
:10012000A217B307E1F7ED3CF40721F70E949C000A
:080130000C94B002F894FFCF1B
:10013800CF93DF9300D0CDB7DEB70E9479020E943B
:10014800370280E00E9425010E9418020E94DF0207
:10015800789480E00E946301E12CF12C00E010E427
:10016800809107408E7F90910640892B90E00E94F5
:10017800D70289EF90E00197F1F700C000000E94D4
:10018800C502F80180830E94C502F80181830E949C
:10019800C502F801828391819093054090819093E4
:1001A8000440882351F08091034091E08B3008F09F
:1001B80090E0890F8093034009C08091034091E04B
:1001C800811101C090E0891B809303408091034016
:1001D800863020F087E00E94250103C087E00E9456
:1001E80063016091044081E10E944F0260910540E3
:1001F80081E10E944F021A821982BE016E5F7F4F11
:1002080082E20E946602BE016F5F7F4F82E20E9417
:1002180066028981809307408A81817080930640B5
:10022800EF2831F080E00E946301E12CF12C06C038
:1002380080E00E942501EE24E394F12C0E94A402A0
:020248008FCF56
:10024A0090E088309105C8F5FC01EC5AFF4F0C94F8
:10025A00CE02E0E6F4E084818D7F84830895E0E6AF
:10026A00F4E084818B7F84830895E0E6F4E084815E
:10027A00877F84830895E0E6F4E084818F7E848317
:10028A000895E0E6F4E084818F7D84830895E0E6B2
:10029A00F4E084818F7B84830895E0E0F4E0848134
:1002AA008D7F84830895E0E6F4E0848187788483EF
:0C02BA00E0E0F4E084818D7F84830895EF
:1002C60090E088309105C8F5FC01E45AFF4F0C9484
:1002D600CE02E0E6F4E08481826084830895E0E65D
:1002E600F4E08481846084830895E0E6F4E0848108
:1002F600886084830895E0E6F4E0848180618483E5
:100306000895E0E6F4E08481806284830895E0E65F
:10031600F4E08481806484830895E0E0F4E08481DD
:10032600826084830895E0E6F4E0848188678483AC
:0C033600E0E0F4E084818260848308959C
:1003420020E2209305096623D1F0A82FB92F90E06F
:10035200E0E0F9E022E0858185FD17C0858182FD1C
:1003620007C0858183FD04C085818370833099F73E
:1003720080858D939F5F691711F02483ECCF87E00E
:100382008093040908952483E6CF80858D939F5F2F
:060392006913F9CFF4CF5E
:10039800662309F1DC016150262F30E02F5F3F4FC3
:1003A800280F391FE0E0F9E09D919087958195FD30
:1003B8000AC0958192FD07C0958193FD04C095817F
:1003C8009370933099F7958194FD07C0A217B307EE
:0E03D80059F781E0089581E0089580E00895CE
:1003E6009091050993709330E1F0880F682B609324
:1003F6000709E0E0F9E0858185FD0AC0858182FD77
:1004060007C0858183FD04C085818370833099F799
:100416000E948902882339F083E08093040980E0F2
:0A042600089580E0089581E0089534
:10043000A0E0B8E08AE09AE118968D939C93199712
:100440008BE017968C93179781E08093E205E0E0AC
:10045000F4E080E1818380E2828380EC16968C93C5
:0E046000808180648083858180648583089517
:10046E00A0E6B4E011968C9111978E6711968C933D
:10047E001197E0E0F4E081818260818315968C9182
:10048E0015978E6715968C93858182608583089566
:10049E00CF93DF930F92CDB7DEB7698360E00E94F2
:1004AE00F301882341F061E0CE0101960E94CC0158
:0E04BE0093E0909304090F90DF91CF91089581
:1004CC000F931F93CF938B0161E00E94F301C82F10
:1004DC00882321F061E0C8010E94A1018C2FCF91EB
:0604EC001F910F9108951D
:1004F2009CE188ED84BF90936800E0E0FAE08FEF22
:100502009FEF86A397A389E0808310A211A208958A
:10051200809105098C7141F490910509937081E0F5
:0C052200933019F080E0089581E0089506
:10052E00E0E0F9E084E08083118281E082839DEF38
:0A053E00958393E496838383089568
:10054800E0E0FAE080A191A18C379249D8F31092AB
:08055800200A1092210A089507
:10056000EC010E94E9020E94E802CE010E94EA0228
:06057000CE010E94E6022C
:10057600E0E0F4E081818C60818388E083878CE011
:0405860084870895C9
:10058A00E0E0F8E084818823ECF78091000890E0AD
:02059A000895C2
:10059C00EE0FFF1F0024001C0BBE0790F691E02D00
:0205AC000994B0
:1005AE00E0E0F8E0948195FFFDCF80930208089576
:0A05BE000E9497020E94BB020895FC
:0405C8000C9400008F
:0405CC000E949A00EF
:0205D00008958C
:0205D20008958A
:0205D400089588
:00000001FF
