:100000000C9464000C9410020C9410020C941002D6
:100010000C9410020C9410020C9410020C94100218
:100020000C9410020C9410020C9410020C94100208
:100030000C9410020C9410020C9410020C941002F8
:100040000C9410020C9410020C9410020C941002E8
:100050000C9410020C9410020C9410020C941002D8
:100060000C9410020C9410020C9410020C941002C8
:100070000C9410020C9410020C9410020C941002B8
:100080000C9410020C9410020C9410020C941002A8
:100090000C9410020C9410020C9410020C94100298
:1000A0000C9410020C94100237013D0143014901E8
:1000B0004F0155015B01610175017B0181018701E0
:1000C0008D01930199019F01809101108F7C8060C7
:1000D000806898ED94BF8093011011241FBECFEF6C
:1000E000CDBFDFE7DEBFE8ECF0E040E019C0B7913C
:1000F000A79137912791079107FD0EC0979187919E
:10010000EF01F92FE82F0BBF07900D92A217B3074D
:10011000D9F7FE011BBE04C01D92A217B307E1F779
:10012000E83CF40721F70E9499000C94F601F8943A
:02013000FFCFFF
:10013200CF93DF9300D000D0CDB7DEB70E94CC01C1
:1001420080E00E942E010E94E4010E94E40080E00F
:100152000E946C01E0E6F4E081E0818385818160A8
:1001620085838CEE89838FEF8A8382E18B8384E39C
:100172008C8300E010E06894EE24E6F8FF24F2F8A5
:10018200F701848181FF03C080E00E942E0164E0B8
:1001920070E0CE0101960E940A02012B31F081E04B
:1001A2000E946C0100E010E005C081E00E942E0177
:1001B20001E010E080E49DE0A3E0B0E00197A10936
:0601C200B109E1F7DDCFF9
:1001C8000F931F93CF93DF93CDB7DEB72597CDBF9E
:1001D800DEBFE0E4F4E014E011838481846084836A
:1001E80082E082838AE08D8341E050E0BE016B5F4C
:1001F8007F4F80E20E94AA0101E00C8341E050E0B9
:10020800BE016C5F7F4F81E20E94AA010B8341E02F
:1002180050E0BE016D5F7F4F82E20E94AA018FE02D
:100228008A8341E050E0BE016E5F7F4F84E20E9406
:10023800AA01198341E050E0BE016F5F7F4F81E161
:100248000E94AA012596CDBFDEBFDF91CF911F91F5
:040258000F91089565
:10025C0090E088309105C8F5FC01EC5AFF4F0C94E6
:10026C000102E0E6F4E084818D7F84830895E0E66A
:10027C00F4E084818B7F84830895E0E6F4E084814C
:10028C00877F84830895E0E6F4E084818F7E848305
:10029C000895E0E6F4E084818F7D84830895E0E6A0
:1002AC00F4E084818F7B84830895E0E0F4E0848122
:1002BC008D7F84830895E0E6F4E0848181788483E3
:0C02CC00E0E0F4E084818D7F84830895DD
:1002D80090E088309105C8F5FC01E45AFF4F0C9472
:1002E8000102E0E6F4E08481826084830895E0E618
:1002F800F4E08481846084830895E0E6F4E08481F6
:10030800886084830895E0E6F4E0848180618483D2
:100318000895E0E6F4E08481806284830895E0E64D
:10032800F4E08481806484830895E0E0F4E08481CB
:10033800826084830895E0E6F4E084818E67848394
:0C034800E0E0F4E084818260848308958A
:10035400E0E0F4E094819F77948380934409141639
:1003640015066CF4DB01460F571FE0E4F9E08381C6
:100374008823ECF78D918483A417B507C1F7E0E4D3
:10038400F9E083818823ECF7E0E0F4E0848180687D
:0403940084830895C1
:10039800A0E6B4E011968C9111978E6711968C9314
:1003A8001197E0E0F4E081818260818315968C9159
:1003B80015978E6715968C9385818260858308953D
:1003C800E0E0F4E080EF8183848180688483109288
:1003D800E405E0E4F9E084E0818383E2808381E05E
:0403E800828308956F
:1003EC00EC010E9415020E941402CE010E9416021A
:0603FC00CE010E94120276
:10040200EE0FFF1F0024001C0BBE0790F691E02D9B
:0204120009944B
:0C041400AB01BC0180EA0E94AA0108951F
:040420000C94000038
:040424000E9497009B
:02042800089535
:02042A00089533
:02042C00089531
:00000001FF
