:100000000C945C000C9401010C9401010C9401010E
:100010000C9401010C9401010C9401010C94010158
:100020000C9401010C9401010C9401010C94010148
:100030000C9401010C9401010C9401010C94010138
:100040000C9401010C9401010C9401010C94010128
:100050000C9401010C9401010C9401010C94010118
:100060000C9401010C9401010C9401010C94010108
:100070000C9401010C9401010C9401010C940101F8
:100080000C9401010C9401010C9401010C940101E8
:100090000C9401010C9401010C9401010C940101D8
:1000A0000C9401010C9401019A00A000A600AC0080
:1000B000B200B800BE00C400809101108F7C806047
:1000C000806898ED94BF8093011011241FBECFEF7C
:1000D000CDBFDFE7DEBFE8EBF0E040E019C0B7914D
:1000E000A79137912791079107FD0EC097918791AE
:1000F000EF01F92FE82F0BBF07900D92A217B3075E
:10010000D9F7FE011BBE04C01D92A217B307E1F789
:10011000E83BF40721F70E94FB000C94E700F894F9
:02012000FFCF0F
:1001220090E088309105C8F5FC01EC5AFF4F0C9421
:10013200F200E0E6F4E084818D7F84830895E0E6B6
:10014200F4E084818B7F84830895E0E6F4E0848187
:10015200877F84830895E0E6F4E084818F7E848340
:100162000895E0E6F4E084818F7D84830895E0E6DB
:10017200F4E084818F7B84830895E0E0F4E084815D
:100182008D7F84830895E0E6F4E08481817884831E
:0C019200E0E0F4E084818D7F8483089518
:10019E00A0E6B4E011968C9111978E6711968C9310
:1001AE001197E0E0F4E081818260818315968C9155
:1001BE0015978E6715968C93858182608583089539
:1001CE00EC010E9406010E940501CE010E9407016A
:0601DE00CE010E940301A6
:1001E400EE0FFF1F0024001C0BBE0790F691E02DBC
:0201F40009946C
:0C01F6000E94CF0087E00E949100FFCF24
:040202000C94000058
:040206000E948F00C3
:02020A00089555
:02020C00089553
:02020E00089551
:00000001FF
