:100000000C9464000C9440020C9440020C94400246
:100010000C9440020C9440020C9440020C94400258
:100020000C9440020C9440020C9440020C94400248
:100030000C9440020C9440020C9440020C94400238
:100040000C9440020C9440020C9440020C94400228
:100050000C9440020C9440020C9440020C94400218
:100060000C9440020C9440020C9440020C94400208
:100070000C9440020C9440020C9440020C944002F8
:100080000C9440020C9440020C9440020C944002E8
:100090000C9440020C9440020C9440020C944002D8
:1000A0000C9440020C944002EA00F000F600FC00C0
:1000B000020108010E01140128012E0134013A0148
:1000C000400146014C015201809101108F7C8060FB
:1000D000806898ED94BF8093011011241FBECFEF6C
:1000E000CDBFDFE7DEBFE8ECF0E040E019C0B7913C
:1000F000A79137912791079107FD0EC0979187919E
:10010000EF01F92FE82F0BBF07900D92A217B3074D
:10011000D9F7FE011BBE04C01D92A217B307E1F779
:10012000E83CF40721F70E945D010C942C02F8943E
:02013000FFCFFF
:100132000F931F93CF93DF93CDB7DEB72597CDBF34
:10014200DEBFE0E4F4E014E0118384818460848300
:100152008BE08D8341E050E0BE016B5F7F4F80E218
:100162000E94E00101E00C8341E050E0BE016C5FBF
:100172007F4F81E00E94E0010B8341E050E0BE012D
:100182006D5F7F4F82E00E94E0018FE08A8341E051
:1001920050E0BE016E5F7F4F84E00E94E001198350
:1001A20041E050E0BE016F5F7F4F81E10E94E001BC
:1001B2002596CDBFDEBFDF91CF911F910F9108959C
:1001C20090E088309105C8F5FC01EC5AFF4F0C9481
:1001D2003702E0E6F4E084818D7F84830895E0E6CF
:1001E200F4E084818B7F84830895E0E6F4E08481E7
:1001F200877F84830895E0E6F4E084818F7E8483A0
:100202000895E0E6F4E084818F7D84830895E0E63A
:10021200F4E084818F7B84830895E0E0F4E08481BC
:100222008D7F84830895E0E6F4E08481817884837D
:0C023200E0E0F4E084818D7F8483089577
:10023E0090E088309105C8F5FC01E45AFF4F0C940C
:10024E003702E0E6F4E08481826084830895E0E67C
:10025E00F4E08481846084830895E0E6F4E0848190
:10026E00886084830895E0E6F4E08481806184836D
:10027E000895E0E6F4E08481806284830895E0E6E8
:10028E00F4E08481806484830895E0E0F4E0848166
:10029E00826084830895E0E6F4E084818E6784832F
:0C02AE00E0E0F4E0848182608483089525
:1002BA00CF93DF9300D000D0CDB7DEB70E94020201
:1002CA0080E00E94E1000E941A020E94990080E0E8
:1002DA000E941F01E0E6F4E081E08183858181606C
:1002EA00858300E614E064E070E0CE0101960E9486
:1002FA00BA0189818F3A21F4F80184818E7F84833F
:10030A0080E090E001968035F3EC9F07D9F7EBCFB8
:10031A00E0E0F4E094819F77948380934409E0E4D9
:10032A00F9E083818823ECF7141615067CF4DB01C7
:10033A009B01240F351FE0E4F9E0148283818823AE
:10034A00ECF784818D93A217B307B9F7E0E0F4E0E4
:10035A00848180688483FB018081882319F0842F3B
:0A036A00952F08958FEF9FEF08957F
:100374000F931F93CF93DF930F92CDB7DEB78C010A
:10038400AB01BC0181E60E948D01F80180818F3FA1
:1003940069F48AE0898341E050E0BE016F5F7F4FDA
:1003A40080E20E94E00181E090E002C080E090E001
:0C03B4000F90DF91CF911F910F910895E1
:1003C000E0E0F4E094819F779483809344091416CD
:1003D00015066CF4DB01460F571FE0E4F9E083815A
:1003E0008823ECF78D918483A417B507C1F7E0E467
:1003F000F9E083818823ECF7E0E0F4E08481806811
:040400008483089554
:10040400A0E6B4E011968C9111978E6711968C93A7
:100414001197E0E0F4E081818260818315968C91EC
:1004240015978E6715968C938581826085830895D0
:10043400E0E0F4E080EF818384818068848310921B
:10044400E405E0E4F9E084E0818381E2808381E0F3
:040454008283089502
:10045800EC010E9445020E944402CE010E9446021D
:06046800CE010E944202D9
:10046E00EE0FFF1F0024001C0BBE0790F691E02D2F
:02047E000994DF
:040480000C940000D8
:040484000E9497003B
:020488000895D5
:02048A000895D3
:02048C000895D1
:00000001FF
