:100000000C9483000C9487030C9487030C9487034F
:100010000C9487030C9487030C9487030C94870338
:100020000C9487030C9487030C9487030C94870328
:100030000C9487030C9487030C9487030C94870318
:100040000C9487030C9487030C94B8000C948703DA
:100050000C9487030C9487030C9487030C948703F8
:100060000C9487030C9487030C9487030C948703E8
:100070000C9487030C9487030C9487030C948703D8
:100080000C9487030C9487030C9487030C948703C8
:100090000C9487030C9487030C9487030C948703B8
:1000A0000C9487030C9487030C9487030C948703A8
:1000B0000C9487030C9487030C9487030C94870398
:1000C0000C9487030C9487030C9487030C94870388
:1000D0000C9487030C9487030C9487030C94870378
:1000E0000C9487030C9487030C9487030C94870368
:1000F0000C9487034000400C80400C400D00071C0E
:10010000400D40118000809101108F7C80608068DC
:1001100098ED94BF8093011011241FBECFEFCDBF87
:10012000DFE7DEBFE4EFF0E041E019C0B791A7914F
:1001300037912791079107FD0EC097918791EF01A5
:10014000F92FE82F0BBF07900D92A217B307D9F72D
:10015000FE011BBE04C01D92A217B307E1F7E530F4
:10016000F40721F70E94B9010C947C03F894FFCFA7
:100170001F920F920FB60F9211240BB60F922F936E
:100180003F934F935F936F937F938F939F93AF931F
:10019000BF93EF93FF93CF93DF930F92CDB7DEB76B
:1001A00080E099E0FC0183858823BCF5198280E01A
:1001B00099E0FC018385882F90E0827099279595BE
:1001C0008795892B99F480E099E0FC0185858983E6
:1001D0008091004090910140892BD1F02091004006
:1001E000309101408981F901099512C08091024046
:1001F00090910340892B39F0809102409091034007
:10020000FC010995898380E099E02981FC0125871B
:1002100080E099E023E0FC01228780E099E0FC0186
:100220008385882F90E080749927892B09F180E0DD
:1002300099E0FC018385882F90E081709927892BB4
:1002400031F080E099E023E0FC01228711C0809129
:10025000044090910540892B31F0809104409091A9
:100260000540FC01099580E099E026E0FC01228729
:1002700000000F90DF91CF91FF91EF91BF91AF916F
:100280009F918F917F916F915F914F913F912F91AE
:0E0290000F900BBE0F900FBE0F901F90189591
:10029E00CF93DF93CDB7DEB72997CDBFDEBF8D836A
:1002AE006E834F83288739878D81807889838D81EE
:1002BE008F778A838A81482F50E023E032E0429F75
:1002CE00C001439F900D529F900D11248B839C83F0
:1002DE0089818823E9F080E694E02F81422F50E057
:1002EE0021E030E002C0220F331F4A95E2F7FC01F5
:1002FE00258380E694E02E81422F50E021E030E00D
:10030E0002C0220F331F4A95E2F7FC0126831CC060
:10031E0080E694E02E81422F50E021E030E002C0D2
:10032E00220F331F4A95E2F7FC01258380E694E005
:10033E002F81422F50E021E030E002C0220F331F08
:10034E004A95E2F7FC012683888599852B813C81AD
:10035E00FC012487358700002996CDBFDEBFDF91D3
:04036E00CF9108958E
:10037200CF93DF93CDB7DEB76197CDBFDEBF0E94CB
:100382005D030E940F020E946F030E940D0380E42E
:100392000E949A0219820DC08981882F90E09E01E5
:1003A2002E5F3F4F820F931FFC01108289818F5F66
:1003B20089838981803180F3CE01029660E10E94B7
:1003C200DB02CE010296089668E00E94F4028FE3F7
:1003D20092E00E9424038EE692E00E94370381ECB1
:1003E20092E00E944A03789481E10E949A028A85EF
:1003F20080930A408B8580930B4080910A4020E0D5
:100402003BE042E061E00E944F0180910B4020E11D
:0C0412003BE044E063E00E944F01E9CFB2
:10041E00CF93DF93CDB7DEB780E09BE023E0FC0106
:10042E00208380E09BE025E0FC01218380E09BE0BF
:10043E00FC011486158680E09BE0FC011286138673
:10044E0080E19BE023E0FC01208380E19BE025E03E
:10045E00FC01218380E19BE0FC011486158680E17E
:10046E009BE0FC01128613860000DF91CF91089568
:10047E00CF93DF930F92CDB7DEB7898390910C4067
:10048E0081E089278823C9F090910E4080910F401A
:10049E009817C0F4209106403091074080910E408D
:1004AE00882F90E0820F931F2981FC012083809179
:1004BE000E408F5F80930E4005C010920C408981D4
:0E04CE0080930E4000000F90DF91CF910895B3
:1004DC00CF93DF930F92CDB7DEB781E080930D40C1
:1004EC00198290910E4080911040981798F42091A9
:1004FC0008403091094080910E40882F90E0820F87
:10050C00931FFC018081898380910E408F5F8093C3
:10051C000E4005C0809110408F5F80930E40898102
:08052C000F90DF91CF910895BB
:10053400CF93DF930F92CDB7DEB78983109200403B
:100544001092014010920240109203401092044015
:100554001092054080E099E021E0FC01228380E0D4
:1005640099E02981220FFC01248780E099E021EEA3
:0E057400FC01218700000F90DF91CF910895C8
:10058200CF93DF93CDB7DEB780910D40882349F03A
:1005920080910E40882329F080910E4081508093F3
:1005A2000E4081E080930C4010920D400000DF91DC
:0405B200CF91089548
:1005B600CF93DF9300D00F92CDB7DEB789839A83AE
:1005C6006B8389819A8180930840909309408B813F
:1005D6008093104000002396CDBFDEBFDF91CF9100
:0205E600089576
:1005E800CF93DF9300D00F92CDB7DEB789839A837C
:1005F8006B8389819A8180930640909307408B8111
:1006080080930F4000002396CDBFDEBFDF91CF91CE
:02061800089543
:10061A00CF93DF93CDB7DEB780E094E02CE0FC0106
:10062A00218380E094E028E0FC01238780E094E0C5
:0E063A002CE0FC0124870000DF91CF91089591
:10064800CF93DF9300D0CDB7DEB789839A838981B2
:100658009A81809300409093014000000F900F9082
:06066800DF91CF9108951F
:10066E00CF93DF9300D0CDB7DEB789839A8389818C
:10067E009A81809302409093034000000F900F9058
:06068E00DF91CF910895F9
:10069400CF93DF9300D0CDB7DEB789839A83898166
:1006A4009A81809304409093054000000F900F902E
:0606B400DF91CF910895D3
:1006BA00CF93DF93CDB7DEB780E494E02CE0FC0162
:1006CA00218380E694E02EE1FC0121830000DF9182
:0406DA00CF9108951F
:1006DE00CF93DF93CDB7DEB788ED9CE184BF9093C7
:0A06EE0068000000DF91CF9108952D
:1006F800EC010E948C030E948B03CE010E948D03A3
:06070800CE010E948903EE
:04070E000C94000047
:040712000E94B6008B
:02071600089544
:02071800089542
:02071A00089540
:01071C0001DB
:02000004008278
:090000000006000000C80C00001D
:02000004008377
:040000005CC5C55CBA
:00000001FF
