:100000000C9483000C9455030C9455030C945503E5
:100010000C9455030C9455030C9455030C94550300
:100020000C9455030C9455030C9455030C945503F0
:100030000C9455030C9455030C9455030C945503E0
:100040000C9455030C9455030C94B8000C94550370
:100050000C9455030C9455030C9455030C945503C0
:100060000C9455030C9455030C9455030C945503B0
:100070000C9455030C9455030C9455030C945503A0
:100080000C9455030C9455030C9455030C94550390
:100090000C9455030C9455030C9455030C94550380
:1000A0000C9455030C9455030C9455030C94550370
:1000B0000C9455030C9455030C9455030C94550360
:1000C0000C9455030C9455030C9455030C94550350
:1000D0000C9455030C9455030C9455030C94550340
:1000E0000C9455030C9455030C9455030C94550330
:1000F0000C9455034000400A80400A400B0006B8AB
:10010000400B40108000809101108F7C80608068DF
:1001100098ED94BF8093011011241FBECFEFCDBF87
:10012000DFE7DEBFE4EFF0E041E019C0B791A7914F
:1001300037912791079107FD0EC097918791EF01A5
:10014000F92FE82F0BBF07900D92A217B307D9F72D
:10015000FE011BBE04C01D92A217B307E1F7E530F4
:10016000F40721F70E94A7010C944A03F894FFCFEB
:100170001F920F920FB60F9211240BB60F922F936E
:100180003F934F935F936F937F938F939F93AF931F
:10019000BF93EF93FF93CF93DF930F92CDB7DEB76B
:1001A00080E099E0FC0183858823BCF5198280E01A
:1001B00099E0FC018385882F90E0827099279595BE
:1001C0008795892B99F480E099E0FC0185858983E6
:1001D0008091004090910140892BD1F02091004006
:1001E000309101408981F901099512C08091024046
:1001F00090910340892B39F0809102409091034007
:10020000FC010995898380E099E02981FC0125871B
:1002100080E099E023E0FC01228780E099E0FC0186
:100220008385882F90E080749927892B09F180E0DD
:1002300099E0FC018385882F90E081709927892BB4
:1002400031F080E099E023E0FC01228711C0809129
:10025000044090910540892B31F0809104409091A9
:100260000540FC01099580E099E026E0FC01228729
:1002700000000F90DF91CF91FF91EF91BF91AF916F
:100280009F918F917F916F915F914F913F912F91AE
:0E0290000F900BBE0F900FBE0F901F90189591
:10029E00CF93DF9300D000D0CDB7DEB78B836C83C6
:1002AE008B81807889838B818F778A838C81813053
:1002BE00F9F48981882359F080E694E020E1FC016D
:1002CE00258380E694E028E0FC0126830AC080E6C0
:1002DE0094E028E0FC01258380E694E020E1FC0117
:1002EE00268380E09AE02A81220FFC0121A721C0FB
:1002FE008C818823F1F48981882359F080E694E07B
:10030E0024E0FC01258380E694E022E0FC012683B4
:10031E000AC080E694E022E0FC01258380E694E0AA
:10032E0024E0FC01268380E09AE02A81220FFC0162
:10033E0024A700002496CDBFDEBFDF91CF91089594
:10034E00CF93DF93CDB7DEB76197CDBFDEBF0E94EF
:10035E00DE020E94EC010E943D030E94C70281E171
:10036E000E946E0219820DC08981882F90E09E0135
:10037E002E5F3F4F820F931FFC01108289818F5F8A
:10038E0089838981803180F3CE01029660E10E94DB
:10039E009502CE010296089668E00E94AE0286E4AF
:1003AE0092E00E94F5028AE192E00E9408038EE23A
:1003BE0093E00E941B0378948A8560E00E944F01AF
:0A03CE008B8561E00E944F01F7CF1C
:1003D800CF93DF93CDB7DEB780E09AE02CE0FC0145
:1003E800258380E09AE021E0FC01238380E09AE005
:1003F8002FEFFC0126A380E09AE02FEFFC0127A352
:1004080080E09AE0FC0111A680E09AE0FC0114A6C5
:1004180080E09AE024E1FC01218380E09AE021E079
:0C042800FC0120830000DF91CF910895BB
:10043400CF93DF930F92CDB7DEB781E080930B406B
:10044400198290910C4080910F40981798F4209154
:1004540008403091094080910C40882F90E0820F31
:10046400931FFC018081898380910C408F5F80936E
:100474000C4005C080910F408F5F80930C408981B0
:080484000F90DF91CF91089564
:10048C00CF93DF930F92CDB7DEB7898390910C4059
:10049C0080910E409817B8F4209106403091074097
:1004AC0080910D40882F90E0820F931F2981FC01D1
:1004BC00208380910D408F5F80930D4080910D4083
:1004CC00817080930D4000000F90DF91CF910895C3
:1004DC00CF93DF930F92CDB7DEB789831092004094
:1004EC00109201401092024010920340109204406E
:1004FC001092054080E099E021E0FC01228380E02D
:10050C0099E02981220FFC01248780E099E021EEFB
:0E051C00FC01218700000F90DF91CF91089520
:10052A00CF93DF9300D00F92CDB7DEB789839A833A
:10053A006B8389819A8180930840909309408B81CB
:10054A0080930F4000002396CDBFDEBFDF91CF918D
:02055A00089502
:10055C00CF93DF9300D00F92CDB7DEB789839A8308
:10056C006B8389819A8180930640909307408B819D
:10057C0080930E4000002396CDBFDEBFDF91CF915C
:02058C000895D0
:10058E00CF93DF93CDB7DEB780E094E02CE0FC0193
:10059E00218380E094E028E0FC01238780E094E052
:0E05AE002CE0FC0124870000DF91CF9108951E
:1005BC00CF93DF93CDB7DEB780EE95E022E0FC0160
:1005CC00268380E494E02CE0FC01218380E694E017
:0E05DC002EE1FC0121830000DF91CF910895F4
:1005EA00CF93DF9300D0CDB7DEB789839A83898111
:1005FA009A81809300409093014000000F900F90E1
:06060A00DF91CF9108957D
:10061000CF93DF9300D0CDB7DEB789839A838981EA
:100620009A81809302409093034000000F900F90B6
:06063000DF91CF91089557
:10063600CF93DF9300D0CDB7DEB789839A838981C4
:100646009A81809304409093054000000F900F908C
:06065600DF91CF91089531
:10065C00CF93DF93CDB7DEB710920C4081E080933F
:0E066C000A4010920B400000DF91CF910895DC
:10067A00CF93DF93CDB7DEB788ED9CE184BF90932B
:0A068A0068000000DF91CF91089591
:10069400EC010E945A030E945903CE010E945B039D
:0606A400CE010E94570385
:0406AA000C940000AC
:0406AE000E94B600F0
:0206B2000895A9
:0206B4000895A7
:0206B6000895A5
:0106B8000140
:00000001FF
