:100000000C9454000C9474000C9474000C947400C0
:100010000C9474000C9474000C9474000C94740090
:100020000C9474000C9474000C9474000C94740080
:100030000C9474000C9474000C9474000C94740070
:100040000C9474000C9474000C9474000C94740060
:100050000C9474000C9474000C9474000C94740050
:100060000C9474000C9474000C9474000C94740040
:100070000C9474000C9474000C9474000C94740030
:100080000C9474000C9474000C9474000C94740020
:100090000C9474000C9474000C9474000C94740010
:1000A0000C9474000C947400809101108F7C80601B
:1000B000806898ED94BF8093011011241FBECFEF8C
:1000C000CDBFDFE7DEBF0E9478000C946900F89492
:0200D000FFCF60
:1000D200EC010E947A000E947900CE010E947B000E
:0600E200CE010E94760031
:0400E8000C94000074
:0400EC000E94670007
:0200F000FFCF40
:0200F20008956F
:0200F40008956D
:0200F60008956B
:00000001FF
