:100000000C9483000C9435040C9435040C94350442
:100010000C9435040C9435040C9435040C9435047C
:100020000C9435040C9435040C9435040C9435046C
:100030000C9435040C9435040C9435040C9459023A
:100040000C9435040C9435040C9454010C94350430
:100050000C9435040C9435040C9435040C9435043C
:100060000C9435040C9435040C9435040C9435042C
:100070000C9435040C9435040C9435040C94B8009D
:100080000C9435040C9435040C9435040C9435040C
:100090000C9435040C9435040C9435040C943504FC
:1000A0000C9435040C9435040C9435040C943504EC
:1000B0000C9435040C9435040C9435040C943504DC
:1000C0000C9435040C9435040C9435040C943504CC
:1000D0000C9435040C9435040C9435040C943504BC
:1000E0000C9435040C9435040C9435040C943504AC
:1000F0000C94350440004032804032403300087890
:10010000403340388000809101108F7C806080688F
:1001100098ED94BF8093011011241FBECFEFCDBF87
:10012000DFE7DEBFE4EFF0E041E019C0B791A7914F
:1001300037912791079107FD0EC097918791EF01A5
:10014000F92FE82F0BBF07900D92A217B307D9F72D
:10015000FE011BBE04C01D92A217B307E1F7E530F4
:10016000F40721F70E94F4020C942A04F894FFCFBC
:100170001F920F920FB60F9211240BB60F922F936E
:100180003F934F935F938F939F93AF93BF93EF935F
:10019000FF93CF93DF93CDB7DEB72697CDBFDEBFFA
:1001A00080E29BE021E0FC01268380E09AE026E0EB
:1001B00030E0FC0120A731A780912F40882F90E0EC
:1001C00020E23BE0F90124853585880F991F805096
:1001D000904CFC012083318380912F408F5F80936E
:1001E0002F4080912F40877080932F4019821A8270
:1001F0001B821C821D821E821DC08D819E81880FE4
:10020000991F8050904CFC0180819181CC01A0E02D
:10021000B0E029813A814B815C81820F931FA41F3A
:10022000B51F89839A83AB83BC838D819E810196A0
:100230008D839E838D819E810897FCF289819A81AE
:10024000AB81BC81689412F8B595A7959795879571
:100250001694D1F789839A83AB83BC838981809379
:10026000104089819A81AB81BC81892F9A2FAB2F55
:10027000BB27A7FDBA958093114000002696CDBFFD
:10028000DEBFDF91CF91FF91EF91BF91AF919F9131
:100290008F915F914F913F912F910F900BBE0F90D7
:0802A0000FBE0F901F9018958E
:1002A8001F920F920FB60F9211240BB60F922F9335
:1002B8003F934F935F936F937F938F939F93AF93E6
:1002C800BF93EF93FF93CF93DF930F92CDB7DEB732
:1002D80080E099E0FC0183858823BCF5198280E0E1
:1002E80099E0FC018385882F90E082709927959585
:1002F8008795892B99F480E099E0FC0185858983AD
:100308008091254090912640892BD1F0209125405D
:10031800309126408981F901099512C080912740C2
:1003280090912840892B39F080912740909128405E
:10033800FC010995898380E099E02981FC012587E2
:1003480080E099E023E0FC01228780E099E0FC014D
:100358008385882F90E080749927892B09F180E0A4
:1003680099E0FC018385882F90E081709927892B7B
:1003780031F080E099E023E0FC01228711C08091F0
:10038800294090912A40892B31F080912940909101
:100398002A40FC01099580E099E026E0FC012287CB
:1003A80000000F90DF91CF91FF91EF91BF91AF9136
:1003B8009F918F917F916F915F914F913F912F9175
:0E03C8000F900BBE0F900FBE0F901F90189558
:1003D600CF93DF93CDB7DEB780E094E023E0FC0156
:1003E600218380E09AE029E0FC01208380E09AE006
:1003F60023E0FC01218380E09AE020E03AE0F90165
:1004060021812061FC01218380E09AE021E13AE725
:10041600FC0126A337A380E09AE026E030E0FC0149
:1004260020A731A780E092E025E4FC01208B80E044
:1004360092E08E5B9F4F21E0FC01208380E29BE0EF
:1004460021E0FC01258380E29BE021E0FC0124837E
:1004560080E29BE024E0FC01218380E29BE021E036
:10046600FC01208380E092E026E4FC01218B80E001
:1004760092E0805C9F4F22E0FC01208380E19BE0BC
:1004860021E0FC01258380E19BE021E0FC0124833F
:1004960080E19BE023E0FC01218380E19BE021E0F9
:0C04A600FC0120830000DF91CF9108953D
:1004B2001F920F920FB60F9211240BB60F922F9329
:1004C2003F938F939F93EF93FF93CF93DF93CDB798
:1004D200DEB780E19BE021E0FC0126838091304081
:1004E200882F90E020E13BE0F90124853585805E8C
:1004F2009F4BFC01208380913040882F90E0805EEA
:100502009F4BFC018081883C28F4809131408F5FB1
:1005120080933140809130408F5F80933040809152
:1005220030408530B8F080913140853049F480E028
:1005320094E022E0FC0124838FEF8093114006C0F7
:1005420080E094E0FC01148210921140109230403D
:10055200109231400000DF91CF91FF91EF919F9176
:100562008F913F912F910F900BBE0F900FBE0F9066
:040572001F90189529
:10057600CF93DF930F92CDB7DEB789839091324048
:1005860081E089278823C9F09091344080913640D4
:10059600981710F520912B4030912C4080913440D3
:1005A600882F90E0820F931F2981FC012083809180
:1005B60034408F5F809334400FC0109232402091B8
:1005C6002B4030912C4080913440882F90E0820F50
:1005D600931F2981FC01208300000F90DF91CF91AA
:0205E600089576
:1005E800CF93DF930F92CDB7DEB70E941D040E9410
:1005F800EB010E94CD0382E20E94290319820AC0FE
:100608008981882F90E0805F9F4BFC01108289814F
:100618008F5F89838981803198F360E180E190E47C
:100628000E949B0368E088E190E40E94B4038BEB8E
:1006380092E00E94E40380E593E00E94F70387E7D5
:0A06480093E00E940A047894FFCFAB
:10065200CF93DF930F92CDB7DEB7898310922540F7
:100662001092264010922740109228401092294062
:1006720010922A4080E099E021E0FC01228380E090
:1006820099E02981220FFC01248780E099E021EE84
:0E069200FC01218700000F90DF91CF910895A9
:1006A000CF93DF930F92CDB7DEB781E080933340D5
:1006B00019829091344080913740981770F42091BE
:1006C0002D4030912E4080913540882F90E0820F50
:1006D000931FFC018081898305C0809137408F5F23
:0E06E0008093344089810F90DF91CF9108956F
:1006EE00CF93DF93CDB7DEB780913340882349F0A7
:1006FE0080913440882329F080913440815080933A
:10070E00344081E0809332401092334080913540E6
:10071E008F5F809335408091354081708093354056
:08072E000000DF91CF91089556
:10073600CF93DF9300D00F92CDB7DEB789839A832C
:100746006B8389819A8180932D4090932E408B8173
:100756008093374000002396CDBFDEBFDF91CF9157
:020766000895F4
:10076800CF93DF9300D00F92CDB7DEB789839A83FA
:100778006B8389819A8180932B4090932C408B8145
:100788008093364000002396CDBFDEBFDF91CF9126
:020798000895C2
:10079A00CF93DF93CDB7DEB780E094E02CE0FC0185
:1007AA00218380E094E028E0FC01238780E094E044
:0E07BA002CE0FC0124870000DF91CF91089510
:1007C800CF93DF9300D0CDB7DEB789839A83898131
:1007D8009A81809325409093264000000F900F90B7
:0607E800DF91CF9108959E
:1007EE00CF93DF9300D0CDB7DEB789839A8389810B
:1007FE009A81809327409093284000000F900F908D
:06080E00DF91CF91089577
:10081400CF93DF9300D0CDB7DEB789839A838981E4
:100824009A818093294090932A4000000F900F9062
:06083400DF91CF91089551
:10083A00CF93DF93CDB7DEB788ED94E184BF909371
:0A084A0068000000DF91CF910895CF
:10085400EC010E943A040E943904CE010E943B0438
:06086400CE010E943704E2
:04086A000C940000EA
:04086E000E94B6002E
:020872000895E7
:020874000895E5
:020876000895E3
:01087800017E
:00000001FF
