:100000000C945D000C94E0040C94E0040C94E00467
:100010000C94E0040C94E0040C94E0040C94E004D0
:100020000C94E0040C94E0040C94E0040C94E004C0
:100030000C94E0040C94E0040C94E0040C94E004B0
:100040000C94E0040C94E0040C94E0040C94E004A0
:100050000C94E0040C94E0040C94E0040C94E00490
:100060000C94E0040C94E0040C94E0040C94E00480
:100070000C94E0040C94E0040C94E0040C94E00470
:100080000C94E0040C94E0040C94E0040C94E00460
:100090000C94E0040C94E0040C94E0040C94E00450
:1000A0000C94E0040C94E0044000400680400640BC
:1000B000080009CE400840118000809101108F7C1B
:1000C0008060806898ED94BF8093011011241FBE5A
:1000D000CFEFCDBFDFE7DEBFE8EAF0E040E019C0D8
:1000E000B791A79137912791079107FD0EC097917E
:1000F0008791EF01F92FE82F0BBF07900D92A21700
:10010000B307D9F7FE011BBE04C01D92A217B307A7
:10011000E1F7E93BF40721F70E94A3000C94A70440
:04012000F894FFCF81
:100124004E69676765720044697374616E63653A0A
:1001340020004D6574616C004E6F204D6574616CD8
:0101440000BA
:100146000E94DE0184E291E80E9480040E949C04E1
:100156000E944A0480E88FBF95E89093B000E0E0E3
:10016600F6E091E0948723E020871282208392872D
:100176009FEF90936204E0E0F4E0828388E0878B4F
:1001860000E014E0CC24C394C0E0D6E0DC2C6894F4
:10019600AA24A2F80F2EF3E0BF2EF02D0F2EF0E0CA
:1001A600EF2EF0E4FF2EF02DF801808588236CF009
:1001B60080911040811103C0D092104006C08091FA
:1001C6001040813011F4109210408D8580FFECCFE5
:1001D6008885843059F4888999890E940C0390E0B7
:1001E60080930C4090930D40B8860DC0888583306F
:1001F60051F4888999890E940C0390E080930E40FF
:1002060090930F40A886DD8680910C4090910D401A
:10021600F7018083918380910E4090910F408283F5
:1002260093838091104090E0848395830E94170405
:1002360080930A4090930B402091064030910740EE
:1002460080910A4090910B402817390779F10E9456
:100256008F048BE291E80E94800480910A4090917D
:100266000B409695879562E00E94B6026C2D80E061
:100276000E94B50380910A4090910B409695982F65
:10028600882797958795892B29F086E391E80E9420
:10029600800404C08CE391E80E94800480910A40A7
:1002A60090910B40809306409093074089EF90E031
:1002B6000197F1F700C00000F701808191810E944B
:1002C600B204F701828193810E94B204F70184810E
:0802D60095810E94B20468CF7B
:1002DE0010C00E94C10458F00E94BA0440F029F4E4
:1002EE005F3F29F00C94CF0451110C94C9040C9467
:1002FE00DD040E94D90368F39923B1F3552391F3DA
:10030E00951B550BBB27AA2762177307840738F076
:10031E009F5F5F4F220F331F441FAA1FA9F335D0D3
:10032E000E2E3AF0E0E832D091505040E695001C87
:10033E00CAF72BD0FE2F29D0660F771F881FBB1F41
:10034E00261737074807AB07B0E809F0BB0B802D1F
:10035E00BF01FF2793585F4F3AF09E3F510578F04B
:10036E000C94CF040C94C9045F3FE4F3983ED4F38D
:10037E00869577956795B795F7959F5FC9F7880F1F
:10038E00911D9695879597F90895E1E0660F771F71
:10039E00881FBB1F621773078407BA0720F0621B02
:0E03AE00730B840BBA0BEE1F88F7E0950895D1
:1003BC0088ED84BF8CE180936800E0E6F0E08581F5
:1003CC0080FDFDCFE0E0F9E083E4868383818160EA
:1003DC00838381E0858321E040E060E083E00E943C
:1003EC00FB038FE19EE40197F1F700C0000021E0D0
:1003FC0040E060E083E00E94FB038FE19EE4019704
:10040C00F1F700C0000021E040E060E083E00E94D2
:10041C00FB038FE19EE40197F1F700C0000021E09F
:10042C0040E060E082E00E94FB0321E040E060E0FD
:10043C0082E00E94FB0321E040E060E088E00E9443
:10044C00FB0321E040E060E080E00E94FB0321E040
:10045C0040E060E08CE00E94FB0321E040E060E0C3
:10046C0080E00E94FB0321E040E060E086E00E9417
:10047C00FB0321E040E060E080E00E94FB0321E010
:0C048C0040E060E081E00E94FB03089566
:100498000FC00E94BA0438F00E94C10420F09523CE
:1004A80011F00C94CF040C94DD0411240C94C904AD
:1004B8000E94D90370F3959FC1F3950F50E0551F23
:1004C800629FF001729FBB27F00DB11D639FAA27A1
:1004D800F00DB11DAA1F649F6627B00DA11D661FF0
:1004E800829F2227B00DA11D621F739FB00DA11D11
:1004F800621F839FA00D611D221F749F3327A00DCB
:10050800611D231F849F600D211D822F762F6A2F66
:1005180011249F5750409AF0F1F088234AF0EE0FCB
:10052800FF1FBB1F661F771F881F91505040A9F7F8
:100538009E3F510580F00C94CF040C94C9045F3F92
:10054800E4F3983ED4F3869577956795B795F79534
:10055800E7959F5FC1F7FE2B880F911D96958795AC
:0405680097F9089562
:10056C00CF92DF92EF92FF920F931F93CF93DF9373
:10057C0000D00F92CDB7DEB719821A821B82FE0112
:10058C0034964DEC849F912D1124969596959695C5
:10059C00392F330F232F220F220F230F821B805D45
:1005AC008293892F9111EECFCE0101967C0181E0CF
:1005BC0000E010E0C62ED12C8823C1F0F701808119
:1005CC00882351F013C08EE20E945E04F7018081F3
:1005DC000E945E0480E001C081E00F5F1F4FFFEFBF
:1005EC00EF1AFF0A0330110539F704C0C016D10603
:1005FC0069F7E9CF2396CDBFDEBFDF91CF911F9175
:0C060C000F91FF90EF90DF90CF900895C9
:10061800873128E09207B8F0BC016751784080E044
:1006280090E00E94490320E030E04EEF52E40E943F
:10063800D90420E030E04DEF54E40E94D5040E9434
:10064800860380E81BC0883F27E09207E0F467EF45
:1006580077E0681B790B80E090E00E94490320E076
:1006680030E04EEF52E40E94D90420E030EE4EEF25
:1006780054E40E94D5040E94860380E066230CF4AB
:0A0688006FE7862B089580E00895C7
:10069200E89409C097FB3EF490958095709561951A
:1006A2007F4F8F4F9F4F9923A9F0F92F96E9BB27D0
:1006B2009395F695879577956795B795F111F8CF4C
:1006C200FAF4BB0F11F460FF1BC06F5F7F4F8F4FB7
:1006D2009F4F16C0882311F096E911C0772321F0AD
:1006E2009EE8872F762F05C0662371F096E8862F45
:1006F20070E060E02AF09A95660F771F881FDAF79C
:0A070200880F9695879597F90895E2
:10070C000E94E10388F09F5798F0B92F9927B751B1
:10071C00B0F0E1F0660F771F881F991F1AF0BA9599
:10072C00C9F714C0B13091F00E94C804B1E008952B
:10073C000C94C804672F782F8827B85F39F0B93F1D
:10074C00CCF3869577956795B395D9F73EF490954C
:0E075C008095709561957F4F8F4F9F4F089548
:10076A00CF93C82F611102C088E001C08CE021E05C
:10077A0040E060E00E94FB0321E040E060E080E0AE
:10078A000E94FB03CC2371F021E040E060E081E0AD
:10079A000E94FB0321E040E060E084E00E94FB034A
:0807AA00C15091F7CF910895B1
:1007B20057FD9058440F551F59F05F3F71F0479510
:1007C200880F97FB991F61F09F3F79F087950895F5
:1007D200121613061406551FF2CF4695F1DF08C014
:1007E200161617061806991FF1CF86957105610531
:0407F20008940895CA
:1007F600CF9398E0299F900111248295807F282B22
:10080600C42FCC0FC22BC62B6C2F87E20E9431045B
:100816006C2F646087E20E9431046C2F6B7F87E245
:080826000E943104CF910895F6
:10082E00E0E0F8E010C080910840909109400196F8
:10083E008093084090930940809108409091094020
:10084E008031974219F0848188236CF780910008DB
:04085E0090E0089589
:10086200880F80930709E0E0F9E0858186FFFDCFDC
:1008720060930809E0E0F9E0858186FFFDCF83E01F
:10088200809304098FE99FE00197F1F700C000000F
:020892000895C7
:10089400E0E0F8E08AE09AE1808791878BE0878343
:1008A400A0E0B4E081E011968C93119782E0129657
:0808B4008C9380EC868308950B
:1008BC00CF93C82F21E040E061E082958F700E94B9
:1008CC00FB0321E040E061E08C2F0E94FB03CF9101
:0208DC0008957D
:1008DE00092E0394000C11F4882352F0BB0F40F440
:1008EE00BF2B11F460FF04C06F5F7F4F8F4F9F4F80
:0208FE0008955B
:10090000CF93DF93EC018881882331F021960E94F8
:0E0910005E0489918111FBCFDF91CF91089594
:10091E0021E040E060E080E00E94FB0321E040E047
:0A092E0060E081E00E94FB030895E1
:1009380088ED84BF8CE180936800E0E6F0E0858173
:0609480080FDFDCF0895C3
:10094E00EC010E94E5040E94E404CE010E94E6043C
:06095E00CE010E94E2043C
:10096400E0E0F8E0948195FFFDCF809302080895BC
:0E09740000240A9416161706180609060895A0
:0E09820000240A9412161306140605060895A2
:0E099000E894BB2766277727CB0197F90895D7
:0C099E0097F99F6780E870E060E0089522
:0809AA000E946F010C946F0420
:0809B2000E944C020C946F043A
:0609BA009FEF80EC0895A0
:0409C0000C94000093
:0409C4000E949000FD
:0209C800089590
:0209CA0008958E
:0209CC0008958C
:0209CE00010026
:00000001FF
