:100000000C945D000C9406050C9406050C940605F2
:100010000C9406050C9406050C9406050C94060534
:100020000C9406050C9406050C9406050C94060524
:100030000C9406050C9406050C9406050C94060514
:100040000C9406050C9406050C9406050C94060504
:100050000C9406050C9406050C9406050C940605F4
:100060000C9406050C9406050C9406050C940605E4
:100070000C9406050C9406050C9406050C940605D4
:100080000C9406050C9406050C9406050C940605C4
:100090000C9406050C9406050C9406050C940605B4
:1000A0000C9406050C94060540004006804006406E
:1000B00008000A1A400840118000809101108F7CCE
:1000C0008060806898ED94BF8093011011241FBE5A
:1000D000CFEFCDBFDFE7DEBFE8EAF0E040E019C0D8
:1000E000B791A79137912791079107FD0EC097917E
:1000F0008791EF01F92FE82F0BBF07900D92A21700
:10010000B307D9F7FE011BBE04C01D92A217B307A7
:10011000E1F7E93BF40721F70E94B6000C94CD0407
:04012000F894FFCF81
:100124004E69676765722100446964736275727908
:1001340020446964646C657273002620436F2E202A
:100144004573742E20323030360044697374616E06
:1001540063653A20004D6574616C202020004E6F69
:07016400204D6574616C0081
:10016C000E94030284E291E80E94A6040E94B50456
:10017C008CE291E80E94A60461E080E00E94DA0320
:10018C008EE391E80E94A6040E94C2040E946F04B0
:10019C0080E88FBF95E89093B000E0E0F6E091E046
:1001AC00948723E020871282208392879FEF90937D
:1001BC006204E0E0F4E0828388E0878B0E94B5045F
:1001CC008EE491E80E94A60400E014E0CC24C394D1
:1001DC00C0E0D6E0DC2C6894AA24A2F80F2EF3E041
:1001EC00BF2EF02D0F2EF0E0EF2EF0E4FF2EF02DB1
:1001FC00F801808588236CF080911040811103C038
:10020C00D092104006C080911040813011F41092B1
:10021C0010408D8580FFECCF8885843059F4888917
:10022C0099890E94310390E080930C4090930D408B
:10023C00B8860DC08885833051F4888999890E94CD
:10024C00310390E080930E4090930F40A886DD869A
:10025C0080910C4090910D40F701808391838091A7
:10026C000E4090910F40828393838091104090E0D8
:10027C00848395830E943C0480930A4090930B40A6
:10028C00209106403091074080910A4090910B409C
:10029C002817390769F160E08AE00E94DA0380913F
:1002AC000A4090910B409695879562E00E94DB0284
:1002BC006C2D80E00E94DA0380910A4090910B40F3
:1002CC009695982F882797958795892B29F089E5FE
:1002DC0091E80E94A60404C082E691E80E94A6045C
:1002EC0080910A4090910B40809306409093074078
:1002FC0089EF90E00197F1F700C00000F7018081D1
:10030C0091810E94D804F701828193810E94D804C4
:0C031C00F701848195810E94D8046ACF0B
:1003280010C00E94E70458F00E94E00440F029F44D
:100338005F3F29F00C94F50451110C94EF040C94D0
:1003480003050E94FE0368F39923B1F3552391F343
:10035800951B550BBB27AA2762177307840738F02C
:100368009F5F5F4F220F331F441FAA1FA9F335D089
:100378000E2E3AF0E0E832D091505040E695001C3D
:10038800CAF72BD0FE2F29D0660F771F881FBB1FF7
:10039800261737074807AB07B0E809F0BB0B802DD5
:1003A800BF01FF2793585F4F3AF09E3F510578F001
:1003B8000C94F5040C94EF045F3FE4F3983ED4F3F7
:1003C800869577956795B795F7959F5FC9F7880FD5
:1003D800911D9695879597F90895E1E0660F771F27
:1003E800881FBB1F621773078407BA0720F0621BB8
:0E03F800730B840BBA0BEE1F88F7E095089587
:1004060088ED84BF8CE180936800E0E6F0E08581AA
:1004160080FDFDCFE0E0F9E083E48683838181609F
:10042600838381E0858321E040E060E083E00E94F1
:1004360020048FE19EE40197F1F700C0000021E05F
:1004460040E060E083E00E9420048FE19EE4019793
:10045600F1F700C0000021E040E060E083E00E9488
:1004660020048FE19EE40197F1F700C0000021E02F
:1004760040E060E082E00E94200421E040E060E08D
:1004860082E00E94200421E040E060E088E00E94D3
:10049600200421E040E060E080E00E94200421E0AA
:1004A60040E060E08CE00E94200421E040E060E053
:1004B60080E00E94200421E040E060E086E00E94A7
:1004C600200421E040E060E080E00E94200421E07A
:0C04D60040E060E081E00E9420040895F6
:1004E2000FC00E94E00438F00E94E70420F0952338
:1004F20011F00C94F5040C94030511240C94EF04F0
:100502000E94FE0370F3959FC1F3950F50E0551FB3
:10051200629FF001729FBB27F00DB11D639FAA2756
:10052200F00DB11DAA1F649F6627B00DA11D661FA5
:10053200829F2227B00DA11D621F739FB00DA11DC6
:10054200621F839FA00D611D221F749F3327A00D80
:10055200611D231F849F600D211D822F762F6A2F1C
:1005620011249F5750409AF0F1F088234AF0EE0F81
:10057200FF1FBB1F661F771F881F91505040A9F7AE
:100582009E3F510580F00C94F5040C94EF045F3FFC
:10059200E4F3983ED4F3869577956795B795F795EA
:1005A200E7959F5FC1F7FE2B880F911D9695879562
:0405B20097F9089518
:1005B600CF92DF92EF92FF920F931F93CF93DF9329
:1005C60000D00F92CDB7DEB719821A821B82FE01C8
:1005D60034964DEC849F912D11249695969596957B
:1005E600392F330F232F220F220F230F821B805DFB
:1005F6008293892F9111EECFCE0101967C0181E085
:1006060000E010E0C62ED12C8823C1F0F7018081CE
:10061600882351F013C08EE20E948304F701808183
:100626000E94830480E001C081E00F5F1F4FFFEF4F
:10063600EF1AFF0A0330110539F704C0C016D106B8
:1006460069F7E9CF2396CDBFDEBFDF91CF911F912A
:0C0656000F91FF90EF90DF90CF9008957F
:10066200873128E09207B8F0BC016751784080E0FA
:1006720090E00E946E0320E030E04EEF52E40E94D0
:10068200FF0420E030E04DEF54E40E94FB040E949E
:10069200AB0380E81BC0883F27E09207E0F467EFD6
:1006A20077E0681B790B80E090E00E946E0320E007
:1006B20030E04EEF52E40E94FF0420E030EE4EEFB5
:1006C20054E40E94FB040E94AB0380E066230CF416
:0A06D2006FE7862B089580E008957D
:1006DC00E89409C097FB3EF49095809570956195D0
:1006EC007F4F8F4F9F4F9923A9F0F92F96E9BB2786
:1006FC009395F695879577956795B795F111F8CF02
:10070C00FAF4BB0F11F460FF1BC06F5F7F4F8F4F6C
:10071C009F4F16C0882311F096E911C0772321F062
:10072C009EE8872F762F05C0662371F096E8862FFA
:10073C0070E060E02AF09A95660F771F881FDAF751
:0A074C00880F9695879597F9089598
:100756000E94060488F09F5798F0B92F9927B75141
:10076600B0F0E1F0660F771F881F991F1AF0BA954F
:10077600C9F714C0B13091F00E94EE04B1E00895BB
:100786000C94EE04672F782F8827B85F39F0B93FAD
:10079600CCF3869577956795B395D9F73EF4909502
:0E07A6008095709561957F4F8F4F9F4F0895FE
:1007B400CF93C82F611102C088E001C08CE021E012
:1007C40040E060E00E94200421E040E060E080E03E
:1007D4000E942004CC2371F021E040E060E081E03D
:1007E4000E94200421E040E060E084E00E942004B4
:0807F400C15091F7CF91089567
:1007FC0057FD9058440F551F59F05F3F71F04795C6
:10080C00880F97FB991F61F09F3F79F087950895AA
:10081C00121613061406551FF2CF4695F1DF08C0C9
:10082C00161617061806991FF1CF869571056105E6
:04083C00089408957F
:10084000CF9398E0299F900111248295807F282BD7
:10085000C42FCC0FC22BC62B6C2F87E20E945604EC
:100860006C2F646087E20E9456046C2F6B7F87E2D6
:080870000E945604CF91089587
:10087800E0E0F8E010C080910840909109400196AE
:1008880080930840909309408091084090910940D6
:100898008031974219F0848188236CF78091000891
:0408A80090E008953F
:1008AC00880F80930709E0E0F9E0858186FFFDCF92
:1008BC0060930809E0E0F9E0858186FFFDCF83E0D5
:1008CC00809304098FE99FE00197F1F700C00000C5
:0208DC0008957D
:1008DE00E0E0F8E08AE09AE1808791878BE08783F9
:1008EE00A0E0B4E081E011968C93119782E012960D
:0808FE008C9380EC86830895C1
:10090600CF93C82F21E040E061E082958F700E946E
:10091600200421E040E061E08C2F8F700E942004CB
:04092600CF910895D0
:10092A00092E0394000C11F4882352F0BB0F40F4F3
:10093A00BF2B11F460FF04C06F5F7F4F8F4F9F4F33
:02094A0008950E
:10094C00CF93DF93EC018881882331F021960E94AC
:0E095C00830489918111FBCFDF91CF91089523
:10096A0021E040E060E080E00E94200421E040E0D5
:0A097A0060E081E00E94200408956F
:1009840088ED84BF8CE180936800E0E6F0E0858127
:0609940080FDFDCF089577
:10099A00EC010E940B050E940A05CE010E940C057B
:0609AA00CE010E940805C9
:1009B000E0E0F8E0948195FFFDCF80930208089570
:0E09C00000240A941616170618060906089554
:0E09CE0000240A941216130614060506089556
:0E09DC00E894BB2766277727CB0197F908958B
:0C09EA0097F99F6780E870E060E00895D6
:0809F6000E9494010C94950489
:0809FE000E9471020C949504A3
:060A06009FEF80EC089553
:040A0C000C94000046
:040A10000E949000B0
:020A1400089543
:020A1600089541
:020A180008953F
:020A1A000100D9
:00000001FF
