:100000000C9454000C94AD010C94AD010C94AD0112
:100010000C94AD010C94AD010C94AD010C94AD01A8
:100020000C94AD010C94AD010C94AD010C94AD0198
:100030000C94AD010C94AD010C94AD010C94AD0188
:100040000C94AD010C94AD010C94AD010C94AD0178
:100050000C94AD010C94AD010C94AD010C94AD0168
:100060000C94AD010C94AD010C94AD010C94AD0158
:100070000C94AD010C94AD010C94AD010C94AD0148
:100080000C94AD010C94AD010C94AD010C94AD0138
:100090000C94AD010C94AD010C94AD010C94AD0128
:1000A0000C94AD010C94AD01809101108F7C8060A7
:1000B000806898ED94BF8093011011241FBECFEF8C
:1000C000CDBFDFE7DEBF0E9497010C94A201F89438
:0200D000FFCF60
:1000D20088ED84BF8CE180936800E0E6F0E08581E2
:1000E20080FDFDCFE0E0F9E083E4868383818160D7
:1000F200838381E0858321E040E060E083E00E9429
:1001020051018FE19EE40197F1F700C0000021E068
:1001120040E060E083E00E9451018FE19EE401979C
:10012200F1F700C0000021E040E060E083E00E94BF
:1001320051018FE19EE40197F1F700C0000021E038
:1001420040E060E082E00E94510121E040E060E096
:1001520082E00E94510121E040E060E088E00E94DC
:10016200510121E040E060E080E00E94510121E085
:1001720040E060E08EE00E94510121E040E060E05A
:1001820080E00E94510121E040E060E086E00E94B0
:10019200510121E040E060E080E00E94510121E055
:0C01A20040E060E081E00E9451010895FF
:1001AE00CF92DF92EF92FF920F931F93CF93DF9335
:1001BE0000D00F92CDB7DEB719821A821B82FE01D4
:1001CE0034964DEC849F912D112496959695969587
:1001DE00392F330F232F220F220F230F821B805D07
:1001EE008293892F9111EECFCE0101967C0181E091
:1001FE0000E010E0C62ED12C8823C1F0F7018081DB
:10020E00882351F013C08EE20E948601F70180818F
:10021E000E94860180E001C081E00F5F1F4FFFEF5B
:10022E00EF1AFF0A0330110539F704C0C016D106C4
:10023E0069F7E9CF2396CDBFDEBFDF91CF911F9136
:0C024E000F91FF90EF90DF90CF9008958B
:10025A00CF93C82F611102C088E001C08CE021E071
:10026A0040E060E00E94510121E040E060E080E06F
:10027A000E945101CC2371F021E040E060E081E06E
:10028A000E94510121E040E060E084E00E945101B7
:08029A00C15091F7CF910895C6
:1002A200CF9398E0299F900111248295807F282B7B
:1002B200C42FCC0FC22BC62B6C2F87E20E946D017C
:1002C2006C2F646087E20E946D016C2F6B7F87E266
:0802D2000E946D01CF91089517
:1002DA00880F80930709E0E0F9E0858186FFFDCF6A
:1002EA0060930809E0E0F9E0858186FFFDCF83E0AD
:1002FA00809304098FE99FE00197F1F700C000009D
:02030A00089554
:10030C00CF93C82F21E040E061E082958F700E946E
:10031C00510121E040E061E08C2F0E945101CF910E
:02032C00089532
:10032E000E94690061E082E00E942D016FEF80E87B
:06033E000E94D700FFCF72
:10034400EC010E94B2010E94B101CE010E94B301EE
:06035400CE010E94AF0182
:04035A000C940000FF
:04035E000E94670092
:020362000895FC
:020364000895FA
:020366000895F8
:00000001FF
