:100000000C945D000C940F050C940F050C940F05D7
:100010000C940F050C940F050C940F050C940F0510
:100020000C940F050C940F050C940F050C940F0500
:100030000C940F050C940F050C940F050C940F05F0
:100040000C940F050C940F050C940F050C940F05E0
:100050000C940F050C940F050C940F050C940F05D0
:100060000C940F050C940F050C940F050C940F05C0
:100070000C940F050C940F050C940F050C940F05B0
:100080000C940F050C940F050C940F050C940F05A0
:100090000C940F050C940F050C940F050C940F0590
:1000A0000C940F050C940F0540004006804006405C
:1000B00008000A2C400840118000809101108F7CBC
:1000C0008060806898ED94BF8093011011241FBE5A
:1000D000CFEFCDBFDFE7DEBFE8EAF0E040E019C0D8
:1000E000B791A79137912791079107FD0EC097917E
:1000F0008791EF01F92FE82F0BBF07900D92A21700
:10010000B307D9F7FE011BBE04C01D92A217B307A7
:10011000E1F7E93BF40721F70E94B7000C94D604FD
:04012000F894FFCF81
:100124004E69676765722100446964736275727908
:1001340020446964646C657273002620436F2E202A
:100144004573742E20323030360044697374616E06
:1001540063653A2000636D004D6574616C20202056
:0A016400004E6F204D6574616C00C1
:10016E000E9423020E94CB040E94780484E291E84C
:10017E000E94AF0487EA91E60197F1F700C00000F4
:10018E000E94BE0484E690E0E7EAF1E63197F1F7CB
:10019E0000C000000197C1F78CE291E80E94AF0405
:1001AE0084E690E0E7EAF1E63197F1F700C000004F
:1001BE000197C1F761E080E00E94E3038EE391E8CE
:1001CE000E94AF0484E690E0E7EAF1E63197F1F79A
:1001DE0000C000000197C1F780E88FBF95E89093AB
:1001EE00B000E0E0F6E091E0948723E020871282F1
:1001FE00208392879FEF90936204E0E0F4E0828385
:10020E0088E0878B0E94BE048EE491E80E94AF04C2
:10021E0000E014E0EE24E394C0E0D6E0FE2C6894F7
:10022E00AA24A2F80F2EF3E0BF2EF02D0F2EF0E031
:10023E00CF2EF0E4DF2EF02DF801808588231CF000
:10024E00F092104002C0109210408D8580FFF4CFC6
:10025E008885843059F4888999890E943A0390E000
:10026E0080930C4090930D40B8860DC088858330E6
:10027E0051F4888999890E943A0390E080930E4048
:10028E0090930F40A886FD8680910C4090910D4072
:10029E00F6018083918380910E4090910F4082836E
:1002AE0093838091104090E0848395830E9445044F
:1002BE0080930A4090930B40209106403091074066
:1002CE0080910A4090910B402817390781F160E028
:1002DE008AE00E94E30380910A4090910B40809146
:1002EE000A4090910B40969587956FEF0E94FB0206
:1002FE0089E591E80E94AF046E2D80E00E94E30331
:10030E0080910A4090910B4080FF05C08CE591E8EA
:10031E000E94AF0404C085E691E80E94AF0480916C
:10032E000A4090910B40809306409093074089EFCE
:10033E0090E00197F1F700C00000F60180819181F5
:10034E000E94E104F601828193810E94E104F6018C
:0A035E00848195810E94E1046FCFB5
:1003680010C00E94F00458F00E94E90440F029F4FB
:100378005F3F29F00C94FE0451110C94F8040C947E
:100388000C050E94070468F39923B1F3552391F3F0
:10039800951B550BBB27AA2762177307840738F0EC
:1003A8009F5F5F4F220F331F441FAA1FA9F335D049
:1003B8000E2E3AF0E0E832D091505040E695001CFD
:1003C800CAF72BD0FE2F29D0660F771F881FBB1FB7
:1003D800261737074807AB07B0E809F0BB0B802D95
:1003E800BF01FF2793585F4F3AF09E3F510578F0C1
:1003F8000C94FE040C94F8045F3FE4F3983ED4F3A5
:10040800869577956795B795F7959F5FC9F7880F94
:10041800911D9695879597F90895E1E0660F771FE6
:10042800881FBB1F621773078407BA0720F0621B77
:0E043800730B840BBA0BEE1F88F7E095089546
:1004460088ED84BF8CE180936800E0E6F0E085816A
:1004560080FDFDCFE0E0F9E083E48683838181605F
:10046600838381E0858321E040E060E083E00E94B1
:1004760029048FE19EE40197F1F700C0000021E016
:1004860040E060E083E00E9429048FE19EE401974A
:10049600F1F700C0000021E040E060E083E00E9448
:1004A60029048FE19EE40197F1F700C0000021E0E6
:1004B60040E060E082E00E94290421E040E060E044
:1004C60082E00E94290421E040E060E088E00E948A
:1004D600290421E040E060E080E00E94290421E058
:1004E60040E060E08CE00E94290421E040E060E00A
:1004F60080E00E94290421E040E060E086E00E945E
:10050600290421E040E060E080E00E94290421E027
:0C05160040E060E081E00E9429040895AC
:100522000FC00E94E90438F00E94F00420F09523E5
:1005320011F00C94FE040C940C0511240C94F80494
:100542000E94070470F3959FC1F3950F50E0551F69
:10055200629FF001729FBB27F00DB11D639FAA2716
:10056200F00DB11DAA1F649F6627B00DA11D661F65
:10057200829F2227B00DA11D621F739FB00DA11D86
:10058200621F839FA00D611D221F749F3327A00D40
:10059200611D231F849F600D211D822F762F6A2FDC
:1005A20011249F5750409AF0F1F088234AF0EE0F41
:1005B200FF1FBB1F661F771F881F91505040A9F76E
:1005C2009E3F510580F00C94FE040C94F8045F3FAA
:1005D200E4F3983ED4F3869577956795B795F795AA
:1005E200E7959F5FC1F7FE2B880F911D9695879522
:0405F20097F90895D8
:1005F600EF92FF920F931F93CF93DF9300D00F924A
:10060600CDB7DEB719821A821B828E010C5F1F4F8F
:10061600F8014DEC849F912D11249695969596950B
:10062600392F330F232F220F220F230F821B805DBA
:100636008293892F9111EECFCE0101967C01F701AD
:1006460081917F01811104C080E20E948C0402C066
:100656000E948C040E151F0591F72396CDBFDEBFB1
:0E066600DF91CF911F910F91FF90EF900895BB
:10067400873128E09207B8F0BC016751784080E0E8
:1006840090E00E94770320E030E04EEF52E40E94B5
:10069400080520E030E04DEF54E40E9404050E9478
:1006A400B40380E81BC0883F27E09207E0F467EFBB
:1006B40077E0681B790B80E090E00E94770320E0EC
:1006C40030E04EEF52E40E94080520E030EE4EEF99
:1006D40054E40E9404050E94B40380E066230CF4F1
:0A06E4006FE7862B089580E008956B
:1006EE00E89409C097FB3EF49095809570956195BE
:1006FE007F4F8F4F9F4F9923A9F0F92F96E9BB2774
:10070E009395F695879577956795B795F111F8CFEF
:10071E00FAF4BB0F11F460FF1BC06F5F7F4F8F4F5A
:10072E009F4F16C0882311F096E911C0772321F050
:10073E009EE8872F762F05C0662371F096E8862FE8
:10074E0070E060E02AF09A95660F771F881FDAF73F
:0A075E00880F9695879597F9089586
:100768000E940F0488F09F5798F0B92F9927B75126
:10077800B0F0E1F0660F771F881F991F1AF0BA953D
:10078800C9F714C0B13091F00E94F704B1E00895A0
:100798000C94F704672F782F8827B85F39F0B93F92
:1007A800CCF3869577956795B395D9F73EF49095F0
:0E07B8008095709561957F4F8F4F9F4F0895EC
:1007C600CF93C82F611102C088E001C08CE021E000
:1007D60040E060E00E94290421E040E060E080E023
:1007E6000E942904CC2371F021E040E060E081E022
:1007F6000E94290421E040E060E084E00E94290490
:08080600C15091F7CF91089554
:10080E0057FD9058440F551F59F05F3F71F04795B3
:10081E00880F97FB991F61F09F3F79F08795089598
:10082E00121613061406551FF2CF4695F1DF08C0B7
:10083E00161617061806991FF1CF869571056105D4
:04084E00089408956D
:10085200CF9398E0299F900111248295807F282BC5
:10086200C42FCC0FC22BC62B6C2F87E20E945F04D1
:100872006C2F646087E20E945F046C2F6B7F87E2BB
:080882000E945F04CF9108956C
:10088A00E0E0F8E010C0809108409091094001969C
:10089A0080930840909309408091084090910940C4
:1008AA008031974219F0848188236CF7809100087F
:0408BA0090E008952D
:1008BE00880F80930709E0E0F9E0858186FFFDCF80
:1008CE0060930809E0E0F9E0858186FFFDCF83E0C3
:1008DE00809304098FE99FE00197F1F700C00000B3
:0208EE0008956B
:1008F000E0E0F8E08AE09AE1808791878BE08783E7
:10090000A0E0B4E081E011968C93119782E01296FA
:080910008C9380EC86830895AE
:10091800CF93C82F21E040E061E082958F700E945C
:10092800290421E040E061E08C2F8F700E942904A7
:04093800CF910895BE
:10093C00092E0394000C11F4882352F0BB0F40F4E1
:10094C00BF2B11F460FF04C06F5F7F4F8F4F9F4F21
:02095C000895FC
:10095E00CF93DF93EC018881882331F021960E949A
:0E096E008C0489918111FBCFDF91CF91089508
:10097C0021E040E060E080E00E94290421E040E0BA
:0A098C0060E081E00E942904089554
:1009960088ED84BF8CE180936800E0E6F0E0858115
:0609A60080FDFDCF089565
:1009AC00EC010E9414050E941305CE010E9415054E
:0609BC00CE010E941105AE
:1009C200E0E0F8E0948195FFFDCF8093020808955E
:0E09D20000240A941616170618060906089542
:0E09E00000240A941216130614060506089544
:0E09EE00E894BB2766277727CB0197F9089579
:0C09FC0097F99F6780E870E060E00895C4
:080A08000E94B4010C949E044D
:080A10000E9491020C949E0467
:060A18009FEF80EC089541
:040A1E000C94000034
:040A22000E9490009E
:020A2600089531
:020A280008952F
:020A2A0008952D
:020A2C000100C7
:00000001FF
